{
  "_format": "hh-sol-artifact-1",
  "contractName": "Voting",
  "sourceName": "contracts/Voting.sol",
  "abi": [
    {
      "inputs": [
        {
          "internalType": "address",
          "name": "_admin",
          "type": "address"
        }
      ],
      "stateMutability": "nonpayable",
      "type": "constructor"
    },
    {
      "anonymous": false,
      "inputs": [
        {
          "indexed": true,
          "internalType": "uint256",
          "name": "id",
          "type": "uint256"
        },
        {
          "indexed": false,
          "internalType": "string",
          "name": "name",
          "type": "string"
        },
        {
          "indexed": false,
          "internalType": "string",
          "name": "party",
          "type": "string"
        }
      ],
      "name": "CandidateAdded",
      "type": "event"
    },
    {
      "anonymous": false,
      "inputs": [
        {
          "indexed": false,
          "internalType": "string",
          "name": "title",
          "type": "string"
        },
        {
          "indexed": false,
          "internalType": "uint256",
          "name": "timestamp",
          "type": "uint256"
        }
      ],
      "name": "ElectionEnded",
      "type": "event"
    },
    {
      "anonymous": false,
      "inputs": [
        {
          "indexed": false,
          "internalType": "string",
          "name": "title",
          "type": "string"
        },
        {
          "indexed": false,
          "internalType": "uint256",
          "name": "timestamp",
          "type": "uint256"
        }
      ],
      "name": "ElectionStarted",
      "type": "event"
    },
    {
      "anonymous": false,
      "inputs": [
        {
          "indexed": true,
          "internalType": "uint256",
          "name": "candidateId",
          "type": "uint256"
        },
        {
          "indexed": true,
          "internalType": "address",
          "name": "voter",
          "type": "address"
        }
      ],
      "name": "VoteCast",
      "type": "event"
    },
    {
      "anonymous": false,
      "inputs": [
        {
          "indexed": false,
          "internalType": "uint256",
          "name": "timestamp",
          "type": "uint256"
        }
      ],
      "name": "VotingReset",
      "type": "event"
    },
    {
      "anonymous": false,
      "inputs": [
        {
          "indexed": true,
          "internalType": "uint256",
          "name": "id",
          "type": "uint256"
        },
        {
          "indexed": false,
          "internalType": "string",
          "name": "name",
          "type": "string"
        },
        {
          "indexed": false,
          "internalType": "uint256",
          "name": "voteCount",
          "type": "uint256"
        }
      ],
      "name": "WinnerDeclared",
      "type": "event"
    },
    {
      "inputs": [
        {
          "internalType": "string",
          "name": "_name",
          "type": "string"
        },
        {
          "internalType": "uint256",
          "name": "_age",
          "type": "uint256"
        },
        {
          "internalType": "string",
          "name": "_party",
          "type": "string"
        },
        {
          "internalType": "string",
          "name": "_imageUrl",
          "type": "string"
        }
      ],
      "name": "addCandidate",
      "outputs": [],
      "stateMutability": "nonpayable",
      "type": "function"
    },
    {
      "inputs": [],
      "name": "admin",
      "outputs": [
        {
          "internalType": "address",
          "name": "",
          "type": "address"
        }
      ],
      "stateMutability": "view",
      "type": "function"
    },
    {
      "inputs": [
        {
          "internalType": "uint256",
          "name": "",
          "type": "uint256"
        }
      ],
      "name": "candidates",
      "outputs": [
        {
          "internalType": "uint256",
          "name": "id",
          "type": "uint256"
        },
        {
          "internalType": "string",
          "name": "name",
          "type": "string"
        },
        {
          "internalType": "uint256",
          "name": "voteCount",
          "type": "uint256"
        },
        {
          "internalType": "string",
          "name": "imageUrl",
          "type": "string"
        },
        {
          "internalType": "uint256",
          "name": "age",
          "type": "uint256"
        },
        {
          "internalType": "string",
          "name": "party",
          "type": "string"
        }
      ],
      "stateMutability": "view",
      "type": "function"
    },
    {
      "inputs": [],
      "name": "candidatesCount",
      "outputs": [
        {
          "internalType": "uint256",
          "name": "",
          "type": "uint256"
        }
      ],
      "stateMutability": "view",
      "type": "function"
    },
    {
      "inputs": [],
      "name": "currentVotingSession",
      "outputs": [
        {
          "internalType": "uint256",
          "name": "",
          "type": "uint256"
        }
      ],
      "stateMutability": "view",
      "type": "function"
    },
    {
      "inputs": [],
      "name": "electionTitle",
      "outputs": [
        {
          "internalType": "string",
          "name": "",
          "type": "string"
        }
      ],
      "stateMutability": "view",
      "type": "function"
    },
    {
      "inputs": [],
      "name": "endVotingAndReset",
      "outputs": [],
      "stateMutability": "nonpayable",
      "type": "function"
    },
    {
      "inputs": [
        {
          "internalType": "uint256",
          "name": "_candidateId",
          "type": "uint256"
        }
      ],
      "name": "getCandidate",
      "outputs": [
        {
          "internalType": "uint256",
          "name": "id",
          "type": "uint256"
        },
        {
          "internalType": "string",
          "name": "name",
          "type": "string"
        },
        {
          "internalType": "uint256",
          "name": "voteCount",
          "type": "uint256"
        },
        {
          "internalType": "string",
          "name": "imageUrl",
          "type": "string"
        },
        {
          "internalType": "uint256",
          "name": "age",
          "type": "uint256"
        },
        {
          "internalType": "string",
          "name": "party",
          "type": "string"
        }
      ],
      "stateMutability": "view",
      "type": "function"
    },
    {
      "inputs": [],
      "name": "getWinner",
      "outputs": [
        {
          "internalType": "uint256",
          "name": "",
          "type": "uint256"
        },
        {
          "internalType": "string",
          "name": "",
          "type": "string"
        },
        {
          "internalType": "uint256",
          "name": "",
          "type": "uint256"
        }
      ],
      "stateMutability": "view",
      "type": "function"
    },
    {
      "inputs": [
        {
          "internalType": "address",
          "name": "_voter",
          "type": "address"
        }
      ],
      "name": "hasUserVoted",
      "outputs": [
        {
          "internalType": "bool",
          "name": "",
          "type": "bool"
        }
      ],
      "stateMutability": "view",
      "type": "function"
    },
    {
      "inputs": [],
      "name": "isElectionActive",
      "outputs": [
        {
          "internalType": "bool",
          "name": "",
          "type": "bool"
        }
      ],
      "stateMutability": "view",
      "type": "function"
    },
    {
      "inputs": [
        {
          "internalType": "address",
          "name": "",
          "type": "address"
        }
      ],
      "name": "lastVotedSession",
      "outputs": [
        {
          "internalType": "uint256",
          "name": "",
          "type": "uint256"
        }
      ],
      "stateMutability": "view",
      "type": "function"
    },
    {
      "inputs": [
        {
          "internalType": "string",
          "name": "_title",
          "type": "string"
        }
      ],
      "name": "startElection",
      "outputs": [],
      "stateMutability": "nonpayable",
      "type": "function"
    },
    {
      "inputs": [
        {
          "internalType": "uint256",
          "name": "_candidateId",
          "type": "uint256"
        }
      ],
      "name": "vote",
      "outputs": [],
      "stateMutability": "nonpayable",
      "type": "function"
    }
  ],
  "bytecode": "0x608060405234801561001057600080fd5b506040516124213803806124218339818101604052810190610032919061011f565b600073ffffffffffffffffffffffffffffffffffffffff168173ffffffffffffffffffffffffffffffffffffffff160361006c573361006e565b805b600360006101000a81548173ffffffffffffffffffffffffffffffffffffffff021916908373ffffffffffffffffffffffffffffffffffffffff16021790555060016004819055505061014c565b600080fd5b600073ffffffffffffffffffffffffffffffffffffffff82169050919050565b60006100ec826100c1565b9050919050565b6100fc816100e1565b811461010757600080fd5b50565b600081519050610119816100f3565b92915050565b600060208284031215610135576101346100bc565b5b60006101438482850161010a565b91505092915050565b6122c68061015b6000396000f3fe608060405234801561001057600080fd5b50600436106100ea5760003560e01c80635a4128ab1161008c578063c546c3b211610066578063c546c3b214610257578063c844223914610275578063f544bed814610293578063f851a440146102af576100ea565b80635a4128ab146101d75780637fabe80a146102075780638e7ea5b214610237576100ea565b80632d35a8a2116100c85780632d35a8a2146101455780633477ee2e1461016357806335b8e82014610198578063395930a4146101cd576100ea565b80630121b93f146100ef5780631c1d3baf1461010b5780632bad646614610127575b600080fd5b61010960048036038101906101049190611497565b6102cd565b005b6101256004803603810190610120919061160a565b610459565b005b61012f610704565b60405161013c91906116d4565b60405180910390f35b61014d61070a565b60405161015a91906116d4565b60405180910390f35b61017d60048036038101906101789190611497565b610710565b60405161018f9695949392919061176e565b60405180910390f35b6101b260048036038101906101ad9190611497565b6108e4565b6040516101c49695949392919061176e565b60405180910390f35b6101d5610b6a565b005b6101f160048036038101906101ec9190611842565b610f6f565b6040516101fe91906116d4565b60405180910390f35b610221600480360381019061021c9190611842565b610f87565b60405161022e919061188a565b60405180910390f35b61023f610fd4565b60405161024e939291906118a5565b60405180910390f35b61025f611186565b60405161026c91906118e3565b60405180910390f35b61027d611214565b60405161028a919061188a565b60405180910390f35b6102ad60048036038101906102a89190611905565b611227565b005b6102b76113ca565b6040516102c4919061195d565b60405180910390f35b600454600160003373ffffffffffffffffffffffffffffffffffffffff1673ffffffffffffffffffffffffffffffffffffffff1681526020019081526020016000205410610350576040517f08c379a0000000000000000000000000000000000000000000000000000000008152600401610347906119ea565b60405180910390fd5b60008111801561036257506002548111155b6103a1576040517f08c379a000000000000000000000000000000000000000000000000000000000815260040161039890611a56565b60405180910390fd5b600454600160003373ffffffffffffffffffffffffffffffffffffffff1673ffffffffffffffffffffffffffffffffffffffff16815260200190815260200160002081905550600080828152602001908152602001600020600201600081548092919061040d90611aa5565b91905055503373ffffffffffffffffffffffffffffffffffffffff16817ff1003b73c437642c0460aee9cd9628b0b8c447b66e6c7c905531b9c644214a1160405160405180910390a350565b600360009054906101000a900473ffffffffffffffffffffffffffffffffffffffff1673ffffffffffffffffffffffffffffffffffffffff163373ffffffffffffffffffffffffffffffffffffffff16146104e9576040517f08c379a00000000000000000000000000000000000000000000000000000000081526004016104e090611b5f565b60405180910390fd5b600660009054906101000a900460ff16610538576040517f08c379a000000000000000000000000000000000000000000000000000000000815260040161052f90611bcb565b60405180910390fd5b600084511161057c576040517f08c379a000000000000000000000000000000000000000000000000000000000815260040161057390611c37565b60405180910390fd5b600083116105bf576040517f08c379a00000000000000000000000000000000000000000000000000000000081526004016105b690611ca3565b60405180910390fd5b6000825111610603576040517f08c379a00000000000000000000000000000000000000000000000000000000081526004016105fa90611d0f565b60405180910390fd5b6002600081548092919061061690611aa5565b91905055506040518060c0016040528060025481526020018581526020016000815260200182815260200184815260200183815250600080600254815260200190815260200160002060008201518160000155602082015181600101908161067e9190611f3b565b5060408201518160020155606082015181600301908161069e9190611f3b565b506080820151816004015560a08201518160050190816106be9190611f3b565b509050506002547fe64f834082661dd9ed89427b87edb6270fd6dad17198b0938f0edd058914c87f85846040516106f692919061200d565b60405180910390a250505050565b60045481565b60025481565b600060205280600052604060002060009150905080600001549080600101805461073990611d5e565b80601f016020809104026020016040519081016040528092919081815260200182805461076590611d5e565b80156107b25780601f10610787576101008083540402835291602001916107b2565b820191906000526020600020905b81548152906001019060200180831161079557829003601f168201915b5050505050908060020154908060030180546107cd90611d5e565b80601f01602080910402602001604051908101604052809291908181526020018280546107f990611d5e565b80156108465780601f1061081b57610100808354040283529160200191610846565b820191906000526020600020905b81548152906001019060200180831161082957829003601f168201915b50505050509080600401549080600501805461086190611d5e565b80601f016020809104026020016040519081016040528092919081815260200182805461088d90611d5e565b80156108da5780601f106108af576101008083540402835291602001916108da565b820191906000526020600020905b8154815290600101906020018083116108bd57829003601f168201915b5050505050905086565b60006060600060606000606060008711801561090257506002548711155b610941576040517f08c379a000000000000000000000000000000000000000000000000000000000815260040161093890611a56565b60405180910390fd5b60008060008981526020019081526020016000206040518060c00160405290816000820154815260200160018201805461097a90611d5e565b80601f01602080910402602001604051908101604052809291908181526020018280546109a690611d5e565b80156109f35780601f106109c8576101008083540402835291602001916109f3565b820191906000526020600020905b8154815290600101906020018083116109d657829003601f168201915b5050505050815260200160028201548152602001600382018054610a1690611d5e565b80601f0160208091040260200160405190810160405280929190818152602001828054610a4290611d5e565b8015610a8f5780601f10610a6457610100808354040283529160200191610a8f565b820191906000526020600020905b815481529060010190602001808311610a7257829003601f168201915b5050505050815260200160048201548152602001600582018054610ab290611d5e565b80601f0160208091040260200160405190810160405280929190818152602001828054610ade90611d5e565b8015610b2b5780601f10610b0057610100808354040283529160200191610b2b565b820191906000526020600020905b815481529060010190602001808311610b0e57829003601f168201915b5050505050815250509050806000015181602001518260400151836060015184608001518560a001519650965096509650965096505091939550919395565b600360009054906101000a900473ffffffffffffffffffffffffffffffffffffffff1673ffffffffffffffffffffffffffffffffffffffff163373ffffffffffffffffffffffffffffffffffffffff1614610bfa576040517f08c379a0000000000000000000000000000000000000000000000000000000008152600401610bf190611b5f565b60405180910390fd5b600660009054906101000a900460ff16610c49576040517f08c379a0000000000000000000000000000000000000000000000000000000008152600401610c4090612090565b60405180910390fd5b60008060006040518060200160405280600081525090506000600190505b6002548111610d715783600080838152602001908152602001600020600201541115610d5e576000808281526020019081526020016000206002015493506000808281526020019081526020016000206000015492506000808281526020019081526020016000206001018054610cdd90611d5e565b80601f0160208091040260200160405190810160405280929190818152602001828054610d0990611d5e565b8015610d565780601f10610d2b57610100808354040283529160200191610d56565b820191906000526020600020905b815481529060010190602001808311610d3957829003601f168201915b505050505091505b8080610d6990611aa5565b915050610c67565b5060006002541115610db857817fac9b1591168829be388b71b312de9ab9615c4789287d7aaea765412f3856fb288285604051610daf9291906120b0565b60405180910390a25b600060058054610dc790611d5e565b80601f0160208091040260200160405190810160405280929190818152602001828054610df390611d5e565b8015610e405780601f10610e1557610100808354040283529160200191610e40565b820191906000526020600020905b815481529060010190602001808311610e2357829003601f168201915b5050505050905060056000610e5591906113f0565b6000600660006101000a81548160ff0219169083151502179055506000600190505b6002548111610ef057600080828152602001908152602001600020600080820160009055600182016000610eab91906113f0565b6002820160009055600382016000610ec391906113f0565b6004820160009055600582016000610edb91906113f0565b50508080610ee890611aa5565b915050610e77565b5060006002819055507f4d31db6748edbbd9e5b81d507a6477be9bddc93567dc5e6fac4e6bae81f27fa58142604051610f2a9291906120b0565b60405180910390a17f41b2ee700a80ceac0ac81d11a0c4b9f935b68de0b557e9e7da3681077bf34ba442604051610f6191906116d4565b60405180910390a150505050565b60016020528060005260406000206000915090505481565b6000600454600160008473ffffffffffffffffffffffffffffffffffffffff1673ffffffffffffffffffffffffffffffffffffffff16815260200190815260200160002054149050919050565b600060606000806002541161101e576040517f08c379a00000000000000000000000000000000000000000000000000000000081526004016110159061212c565b60405180910390fd5b6000806000600190505b600254811161107d578260008083815260200190815260200160002060020154111561106a576000808281526020019081526020016000206002015492508091505b808061107590611aa5565b915050611028565b50600081116110c1576040517f08c379a00000000000000000000000000000000000000000000000000000000081526004016110b890612198565b60405180910390fd5b80600080838152602001908152602001600020600101600080848152602001908152602001600020600201548180546110f990611d5e565b80601f016020809104026020016040519081016040528092919081815260200182805461112590611d5e565b80156111725780601f1061114757610100808354040283529160200191611172565b820191906000526020600020905b81548152906001019060200180831161115557829003601f168201915b505050505091509450945094505050909192565b6005805461119390611d5e565b80601f01602080910402602001604051908101604052809291908181526020018280546111bf90611d5e565b801561120c5780601f106111e15761010080835404028352916020019161120c565b820191906000526020600020905b8154815290600101906020018083116111ef57829003601f168201915b505050505081565b600660009054906101000a900460ff1681565b600360009054906101000a900473ffffffffffffffffffffffffffffffffffffffff1673ffffffffffffffffffffffffffffffffffffffff163373ffffffffffffffffffffffffffffffffffffffff16146112b7576040517f08c379a00000000000000000000000000000000000000000000000000000000081526004016112ae90611b5f565b60405180910390fd5b60008151116112fb576040517f08c379a00000000000000000000000000000000000000000000000000000000081526004016112f290612204565b60405180910390fd5b600660009054906101000a900460ff161561134b576040517f08c379a000000000000000000000000000000000000000000000000000000000815260040161134290612270565b60405180910390fd5b806005908161135a9190611f3b565b506001600660006101000a81548160ff0219169083151502179055506004600081548092919061138990611aa5565b91905055507f627fedc2c091c67f445c74dafa73901e80b09b2f142b1fc11fe75960202b41fd81426040516113bf9291906120b0565b60405180910390a150565b600360009054906101000a900473ffffffffffffffffffffffffffffffffffffffff1681565b5080546113fc90611d5e565b6000825580601f1061140e575061142d565b601f01602090049060005260206000209081019061142c9190611430565b5b50565b5b80821115611449576000816000905550600101611431565b5090565b6000604051905090565b600080fd5b600080fd5b6000819050919050565b61147481611461565b811461147f57600080fd5b50565b6000813590506114918161146b565b92915050565b6000602082840312156114ad576114ac611457565b5b60006114bb84828501611482565b91505092915050565b600080fd5b600080fd5b6000601f19601f8301169050919050565b7f4e487b7100000000000000000000000000000000000000000000000000000000600052604160045260246000fd5b611517826114ce565b810181811067ffffffffffffffff82111715611536576115356114df565b5b80604052505050565b600061154961144d565b9050611555828261150e565b919050565b600067ffffffffffffffff821115611575576115746114df565b5b61157e826114ce565b9050602081019050919050565b82818337600083830152505050565b60006115ad6115a88461155a565b61153f565b9050828152602081018484840111156115c9576115c86114c9565b5b6115d484828561158b565b509392505050565b600082601f8301126115f1576115f06114c4565b5b813561160184826020860161159a565b91505092915050565b6000806000806080858703121561162457611623611457565b5b600085013567ffffffffffffffff8111156116425761164161145c565b5b61164e878288016115dc565b945050602061165f87828801611482565b935050604085013567ffffffffffffffff8111156116805761167f61145c565b5b61168c878288016115dc565b925050606085013567ffffffffffffffff8111156116ad576116ac61145c565b5b6116b9878288016115dc565b91505092959194509250565b6116ce81611461565b82525050565b60006020820190506116e960008301846116c5565b92915050565b600081519050919050565b600082825260208201905092915050565b60005b8381101561172957808201518184015260208101905061170e565b60008484015250505050565b6000611740826116ef565b61174a81856116fa565b935061175a81856020860161170b565b611763816114ce565b840191505092915050565b600060c08201905061178360008301896116c5565b81810360208301526117958188611735565b90506117a460408301876116c5565b81810360608301526117b68186611735565b90506117c560808301856116c5565b81810360a08301526117d78184611735565b9050979650505050505050565b600073ffffffffffffffffffffffffffffffffffffffff82169050919050565b600061180f826117e4565b9050919050565b61181f81611804565b811461182a57600080fd5b50565b60008135905061183c81611816565b92915050565b60006020828403121561185857611857611457565b5b60006118668482850161182d565b91505092915050565b60008115159050919050565b6118848161186f565b82525050565b600060208201905061189f600083018461187b565b92915050565b60006060820190506118ba60008301866116c5565b81810360208301526118cc8185611735565b90506118db60408301846116c5565b949350505050565b600060208201905081810360008301526118fd8184611735565b905092915050565b60006020828403121561191b5761191a611457565b5b600082013567ffffffffffffffff8111156119395761193861145c565b5b611945848285016115dc565b91505092915050565b61195781611804565b82525050565b6000602082019050611972600083018461194e565b92915050565b7f596f75206861766520616c726561647920766f74656420696e2074686973207360008201527f657373696f6e0000000000000000000000000000000000000000000000000000602082015250565b60006119d46026836116fa565b91506119df82611978565b604082019050919050565b60006020820190508181036000830152611a03816119c7565b9050919050565b7f496e76616c69642063616e646964617465204944000000000000000000000000600082015250565b6000611a406014836116fa565b9150611a4b82611a0a565b602082019050919050565b60006020820190508181036000830152611a6f81611a33565b9050919050565b7f4e487b7100000000000000000000000000000000000000000000000000000000600052601160045260246000fd5b6000611ab082611461565b91507fffffffffffffffffffffffffffffffffffffffffffffffffffffffffffffffff8203611ae257611ae1611a76565b5b600182019050919050565b7f4f6e6c792061646d696e2063616e20706572666f726d2074686973206163746960008201527f6f6e000000000000000000000000000000000000000000000000000000000000602082015250565b6000611b496022836116fa565b9150611b5482611aed565b604082019050919050565b60006020820190508181036000830152611b7881611b3c565b9050919050565b7f456c656374696f6e20686173206e6f74206265656e2073746172746564000000600082015250565b6000611bb5601d836116fa565b9150611bc082611b7f565b602082019050919050565b60006020820190508181036000830152611be481611ba8565b9050919050565b7f4e616d652063616e6e6f7420626520656d707479000000000000000000000000600082015250565b6000611c216014836116fa565b9150611c2c82611beb565b602082019050919050565b60006020820190508181036000830152611c5081611c14565b9050919050565b7f416765206d7573742062652067726561746572207468616e2030000000000000600082015250565b6000611c8d601a836116fa565b9150611c9882611c57565b602082019050919050565b60006020820190508181036000830152611cbc81611c80565b9050919050565b7f50617274792063616e6e6f7420626520656d7074790000000000000000000000600082015250565b6000611cf96015836116fa565b9150611d0482611cc3565b602082019050919050565b60006020820190508181036000830152611d2881611cec565b9050919050565b7f4e487b7100000000000000000000000000000000000000000000000000000000600052602260045260246000fd5b60006002820490506001821680611d7657607f821691505b602082108103611d8957611d88611d2f565b5b50919050565b60008190508160005260206000209050919050565b60006020601f8301049050919050565b600082821b905092915050565b600060088302611df17fffffffffffffffffffffffffffffffffffffffffffffffffffffffffffffffff82611db4565b611dfb8683611db4565b95508019841693508086168417925050509392505050565b6000819050919050565b6000611e38611e33611e2e84611461565b611e13565b611461565b9050919050565b6000819050919050565b611e5283611e1d565b611e66611e5e82611e3f565b848454611dc1565b825550505050565b600090565b611e7b611e6e565b611e86818484611e49565b505050565b5b81811015611eaa57611e9f600082611e73565b600181019050611e8c565b5050565b601f821115611eef57611ec081611d8f565b611ec984611da4565b81016020851015611ed8578190505b611eec611ee485611da4565b830182611e8b565b50505b505050565b600082821c905092915050565b6000611f1260001984600802611ef4565b1980831691505092915050565b6000611f2b8383611f01565b9150826002028217905092915050565b611f44826116ef565b67ffffffffffffffff811115611f5d57611f5c6114df565b5b611f678254611d5e565b611f72828285611eae565b600060209050601f831160018114611fa55760008415611f93578287015190505b611f9d8582611f1f565b865550612005565b601f198416611fb386611d8f565b60005b82811015611fdb57848901518255600182019150602085019450602081019050611fb6565b86831015611ff85784890151611ff4601f891682611f01565b8355505b6001600288020188555050505b505050505050565b600060408201905081810360008301526120278185611735565b9050818103602083015261203b8184611735565b90509392505050565b7f4e6f2061637469766520656c656374696f6e0000000000000000000000000000600082015250565b600061207a6012836116fa565b915061208582612044565b602082019050919050565b600060208201905081810360008301526120a98161206d565b9050919050565b600060408201905081810360008301526120ca8185611735565b90506120d960208301846116c5565b9392505050565b7f4e6f2063616e6469646174657320726567697374657265640000000000000000600082015250565b60006121166018836116fa565b9150612121826120e0565b602082019050919050565b6000602082019050818103600083015261214581612109565b9050919050565b7f4e6f20766f746573206361737400000000000000000000000000000000000000600082015250565b6000612182600d836116fa565b915061218d8261214c565b602082019050919050565b600060208201905081810360008301526121b181612175565b9050919050565b7f5469746c652063616e6e6f7420626520656d7074790000000000000000000000600082015250565b60006121ee6015836116fa565b91506121f9826121b8565b602082019050919050565b6000602082019050818103600083015261221d816121e1565b9050919050565b7f456c656374696f6e20697320616c726561647920616374697665000000000000600082015250565b600061225a601a836116fa565b915061226582612224565b602082019050919050565b600060208201905081810360008301526122898161224d565b905091905056fea26469706673582212200554cd5114acf17c27cd2eb0b14781202980bc3ca3a69a0fdcc20743bf8093e364736f6c634300081b0033",
  "linkReferences": {},
  "deployedLinkReferences": {}
}